S00E00005043412D33342E73726563AE
S11300000C943E000C945B000C945B000C945B001D
S11300100C945B000C945B000C94C2070C945B0082
S11300200C945B000C945B000C945B000C945B00E0
S11300300C945B000C945B000C945B000C945B00D0
S11300400C945B000C945B000C945B000C945B00C0
S11300500C945B000C945B000C945B000C945B00B0
S11300600C945B000C949C070C945B000C945B0058
S11300700C945B000C945B000C945B0011241FBE79
S1130080CFEFCDBFDFE3DEBF28E3A6E0B8E301C0D6
S11300901D92A233B207E1F718E3A0E0B8E3E4EB62
S11300A0FDE102C005900D92A630B107D9F70E9478
S11300B010070C94C30E0C9400006F927F928F92E1
S11300C09F92AF92BF92CF92DF92EF92FF920F93E3
S11300D01F93CF93DF937C01862E972E81E090E0CF
S11300E00E94B30688E390E00E94B3069701ADEC4A
S11300F0BCEC0E94A10AAC015695479556954795CC
S1130100569547959A010E94A10A5C01B694A7945A
S1130110B694A794B694A794C501880F991FAA0C06
S1130120BB1CAA0CBB1CAA0CBB1CA80EB91ECA0182
S11301308A199B095C019701369527953695279571
S1130140ABE7B4E10E94A10A8C0116950795BF9212
S1130150AF921F930F93CAE8DDE9DF93CF931F9209
S11301601F921F921F920E94D10B01966C010E9454
S1130170B00A682E792EBF92AF921F930F93DF932C
S1130180CF93DF92CF927F926F920E94D10B862DF4
S1130190972D0E940206862D972D0E94480BA701D9
S11301A04B5F5F4F9A01ADECBCEC0E94A10A6C015D
S11301B0D694C794D694C794D694C7949601AFEABC
S11301C0B7E40E94A10A281B390B36952795820FA4
S11301D0931F929582958F7089279F70892769E173
S11301E0689F9001699F300D1124C601821B930BF7
S11301F09C01ADECBCEC0E94A10A5C01B694A794EE
S1130200B694A7947A2C9A0136952795A3E1B3E87E
S11302100E94A10A0024880F991F001C880F991FAF
S1130220001C892F902D8C0111278DB79EB7449601
S11302308DBF9EBF101611061CF5C0E0D0E07801FA
S113024091E0E91AF108EC16FD0641F48AEFC816AC
S1130250D10421F486E00E9471060EC09E012F5F36
S11302603F4F23703327232B21F485E00E9471062E
S113027003C084E00E9471062196C017D10719F7C4
S1130280772021F08FEF8A0D0E94710660E081E0F3
S11302900E94FE06C82DD92DC9359BE1D90710F05F
S11302A0C8E5DBE19E01ADECBCEC0E94A10AAC0107
S11302B05695479556954795569547959A010E94A8
S11302C0A10A8C011695079516950795169507951D
S11302D0C801880F991F000F111F000F111F000F75
S11302E0111F080F191FCA01801B910B8C019E015D
S11302F03695279536952795ABE7B4E10E94A10A78
S11303006C01D694C7941F930F93DF92CF920F2E54
S1130310F4E9EF2EFDE9FF2EF02DFF92EF921F92EC
S11303201F921F921F920E94D10B01964C010E94B2
S1130330B00AA82EB92E1F930F93DF92CF92FF928B
S1130340EF929F928F929F938F930E94D10B8A2D4D
S11303509B2D0E9402068A2D9B2D0E94480BE2963B
S1130360D695C795D695C7959E01ABE7B4E10E9493
S1130370A10A7C01F694E7949701ADECBCEC0E94D1
S1130380A10A96958795969587959C01220F331F10
S1130390220F331F820F931FDE2CD81A9E01A5EC67
S11303A0B0E20E94A10A929582958F7089279F706E
S11303B089278C0111278DB79EB744968DBF9EBFA8
S11303C0101611061CF5C0E0D0E0C930D10574F058
S11303D092E3E916F10450F086E00E947106DD20F4
S11303E089F086E00E947106D12C0CC09E012F5F1B
S11303F03F4F20FD04C085E00E94710603C084E0E5
S11304000E9471062196C017D107F9F6DD2021F06C
S11304108FEF8D0D0E947106DF91CF911F910F9187
S1130420FF90EF90DF90CF90BF90AF909F908F9010
S11304307F906F90089581E090E00E94B3068CE372
S113044090E00E94B3068EE99DE90E94020685EAC7
S11304509DE90E9402068DEA9DE90E940206089524
S1130460CF93DF93EC01442339F1222339F1A1E046
S1130470B0E002C0AA0FBB1F6A95E2F791E0E0E08A
S113048030E001C0952F688170E06A237B23672BDD
S113049029F0EE23C9F03F5FE1E003C0E11116C08B
S11304A03F5F86E08A95F1F700C0341741F051E0D0
S11304B0590F2913E7CF03C090E001C090E081E019
S11304C029130BC080E009C0E1E001C0E0E086E050
S11304D08A95F1F700C030E0EACFDF91CF9108951B
S11304E01F93CF93DF932CE34AE066E088E094E027
S11304F00E943002182F2CE34AE065E088E094E083
S11305000E9430021170C12F90E0D92F90E08C230B
S11305109D23892B69F08091080486FD02C082E046
S113052001C080E09091080495FD03C0816001C082
S113053080E0DF91CF911F910895CF9388ED84BF20
S11305401092610087EA91E60197F1F700C000007C
S1130550E0E6F0E08081806880838FE88093000487
S113056088E080931404809315048093160495EF17
S11305709093200491E09093250480933104E3E365
S1130580F4E0908191609083809313018FE38093D2
S11305904004E0E4F1E081818111FDCFE0E4F1E089
S11305A081E090E082879387C1E0C28381E8808301
S11305B0C7830E94700280932D38109225381092C0
S11305C02638109227381092063810920738C093B4
S11305D02C38109208381092093810920A38109268
S11305E00B38109228381092293810922A38109219
S11305F02B38CF9108950E947002809325389091F2
S11306002D3880912538981709F4C3C080912D386E
S1130610811154C080912538823009F04FC08091F7
S11306202638909127388B3B994008F09EC08091E2
S1130630083890910938A0910A38B0910B3840914C
S113064028385091293860912A3870912B38841BAE
S1130650950BA60BB70B0297A105B10510F5809178
S11306602638909127388136994070F48091263845
S1130670909127388C599F4F809326389093273830
S113068081E080932C3871C080912638909127386E
S11306900A96809326389093273881E080932C38EB
S11306A064C080912638909127380A968093263822
S11306B09093273881E080932C3857C080912D384F
S11306C0813009F052C080912538833009F04DC043
S11306D080912638909127380A9708F446C0809173
S11306E0083890910938A0910A38B0910B3840919C
S11306F028385091293860912A3870912B38841BFE
S1130700950BA60BB70B0297A105B10510F58091C7
S11307102638909127388436910570F080912638D8
S113072090912738845691098093263890932738DE
S113073081E080932C3819C0809126389091273815
S11307400A97809326389093273881E080932C3839
S11307500CC080912638909127380A9780932638C8
S11307609093273881E080932C38809125388093AA
S11307702D388091083890910938A0910A38B091A9
S11307800B388093283890932938A0932A38B09353
S11307902B380895EF92FF920F93CF93DF93CDB749
S11307A0DEB72897CDBFDEBF7C01842F698302E0CA
S11307B021E0AE014F5F5F4F682FC7010E940D0813
S11307C08FE097E20197F1F700C00000C7010B9694
S11307D02896CDBFDEBFDF91CF910F91FF90EF90B0
S11307E00895EF92FF920F93CF93DF93CDB7DEB7C7
S11307F02897CDBFDEBF7C01842F698302E021E00E
S1130800AE014F5F5F4F682FC7010E940D088FE054
S113081097E20197F1F700C00000C7010B962896F4
S1130820CDBFDEBFDF91CF910F91FF90EF90089580
S1130830CF93DF93662329F062E00E94F103EC0179
S113084004C062E00E94CA03EC018FE097E20197C2
S1130850F1F700C000006881898170E0762F662777
S1130860680F711D072E000C880B990B0E948609D6
S11308702AE037ED43EA5AE30E94120A9B01AC01D5
S11308800E94E20820E030E048EC52E40E94120AA0
S11308900E944E09CB0161347F4110F080E090E06A
S11308A0219611F48FEF9FEFDF91CF9108950F936D
S11308B01F93CF93DF9300D0CDB7DEB7198288E3BF
S11308C08A8322E0AE014F5F5F4F6CE38CE098E3D4
S11308D00E945108ECE0F8E387898130E9F387E866
S11308E093E10197F1F700C000008091243885302E
S11308F0C9F40CE018E30E94810522E0AE014F5FC9
S11309005F4F6CE3C8010E945108F8018789813068
S1130910E1F387E893E10197F1F700C00000808DCF
S1130920853049F380E490E00E94B30680E091E0D2
S11309300E94B30680E091E00E94B30680E191E05A
S11309400E94B30680E191E00E94B30680E191E049
S11309500E94B30680E191E00E94B30680E091E03A
S11309600E94B30680E091E00E94B30680E091E02B
S11309700E94B30680E091E00E94B30688E191E012
S11309800E94B30688E191E00E94B30688E191E0F9
S11309900E94B30688E191E00E94B30680E091E0F2
S11309A00E94B30680E091E00E94B30680E091E0EB
S11309B00E94B30680E091E00E94B3068CE191E0CE
S11309C00E94B3068CE191E00E94B3068CE191E0B1
S11309D00E94B3068CE191E00E94B30680E091E0AE
S11309E00E94B30680E091E00E94B30680E091E0AB
S11309F00E94B30680E091E00E94B3068EE191E08C
S1130A000E94B3068EE191E00E94B3068EE191E06C
S1130A100E94B3068EE191E00E94B30680E091E06B
S1130A200E94B30680E091E00E94B30680E091E06A
S1130A300E94B30680E091E00E94B3068FE191E04A
S1130A400E94B3068FE191E00E94B3068FE191E02A
S1130A500E94B3068FE191E00E94B30680E091E02A
S1130A600E94B30680E091E00E94B30680E091E02A
S1130A700E94B30681E091E00E94B3068FE191E009
S1130A800E94B3068FE191E00E94B3068FE191E0EA
S1130A900E94B3068FE191E00E94B30681E091E0E9
S1130AA00E94B30680E091E00E94B3068FE191E0DA
S1130AB00E94B3068FE191E00E94B3068FE191E0BA
S1130AC00E94B3068FE191E00E94B3068FE191E0AA
S1130AD00E94B3068FE191E00E94B3068FE191E09A
S1130AE00E94B3068FE191E00E94B30680E890E093
S1130AF00E94B3060F900F90DF91CF911F910F9139
S1130B000895CF93DF93CDB7DEB72A97CDBFDEBF6D
S1130B1087EA91E60197F1F700C00000198288E3A3
S1130B208A8322E0AE014F5F5F4F6CE38CE098E371
S1130B300E945108ECE0F8E387898130E9F387E803
S1130B4093E10197F1F700C00000809124388530CB
S1130B5019F40E94810550C0198289E38A8322E036
S1130B60AE014F5F5F4F6CE38CE098E30E94510845
S1130B70ECE0F8E387898130E9F387E893E10197B2
S1130B80F1F700C0000080912438853019F40E94E8
S1130B90810532C0198284E18A8388E78B838EE5DC
S1130BA08C838DE68D838CE08E8381E08F8386E059
S1130BB0888728E0AE014F5F5F4F6CE38CE098E3D9
S1130BC00E945108ECE0F8E387898130E9F38FE46F
S1130BD093EC0197F1F700C0000080912438853030
S1130BE019F40E94810508C087EA91E60197F1F79C
S1130BF000C000000E9457042A96CDBFDEBFDF91DB
S1130C00CF910895BF92CF92DF92EF92FF920F930C
S1130C101F93CF93DF93CDB7DEB7EDB6FEB6FC01DD
S1130C2001900020E9F731979F01281B390B622FAF
S1130C30A90155274F5F5F4FEDB7FEB7E41BF50BD6
S1130C40EDBFFEBF4DB75EB74F5F5F4FD42EC52ECD
S1130C5070E47183222349F0FC01DA01119690E0DB
S1130C6081918D939F5F6913FBCFBB24B394B20E24
S1130C702B2D6CE38CE098E30E945108ECE0F8E340
S1130C8087898130E9F387E893E10197F1F700C0A0
S1130C900000809124388530C1F40CE018E30E94F0
S1130CA081052B2D4D2D5C2D6CE3C8010E9451084C
S1130CB0F80187898130E1F387E893E10197F1F73F
S1130CC000C00000808D853051F3EDBEFEBEDF9183
S1130CD0CF911F910F91FF90EF90DF90CF90BF9035
S1130CE008950F931F93CF93DF9300D0CDB7DEB752
S1130CF090E499838A8322E0AE014F5F5F4F6CE3F7
S1130D008CE098E30E945108ECE0F8E38789813095
S1130D10E9F387E893E10197F1F700C000008091BF
S1130D2024388530C9F40CE018E30E94810522E0E0
S1130D30AE014F5F5F4F6CE3C8010E945108F80198
S1130D4087898130E1F387E893E10197F1F700C0E7
S1130D500000808D853049F30F900F90DF91CF9183
S1130D601F910F9108950F931F93CF93DF9300D09A
S1130D701F92CDB7DEB79C013695279536952795FA
S1130D802B839B81907C99838A8322E0AE014F5F01
S1130D905F4F6CE38CE098E30E945108ECE0F8E3C9
S1130DA087898130E9F387E893E10197F1F700C07F
S1130DB00000809124388530C9F40CE018E30E94C7
S1130DC0810522E0AE014F5F5F4F6CE3C8010E94D2
S1130DD05108F80187898130E1F387E893E10197AD
S1130DE0F1F700C00000808D853049F32396CDBF14
S1130DF0DEBFDF91CF911F910F910895811106C03D
S1130E00862F806890E00E94B3060895813039F4FB
S1130E10862F90E0805C9F4F80680E94B3060895FF
S1130E200E949D0278944EE560E178E08CE098E3BE
S1130E300E94FC072FE784E89EE121508040904007
S1130E40E1F700C000000E9481052FE784E89EE1DD
S1130E50215080409040E1F700C000000F2EF4EFD5
S1130E60CF2EDD24D394E12CF12CF02DC1E0609140
S1130E7008387091093880910A3890910B38A7018D
S1130E8096010E947F0A672B682B692BE1F441E4E9
S1130E9060E08CE098E30E941804209106383091B9
S1130EA00738AC01421B530B9A0122F42227332743
S1130EB0241B350B2630310534F08093063890938B
S1130EC00738C0932C3880912C388823B1F041E442
S1130ED060E08CE098E30E941804809306389093B5
S1130EE007386091063870910738809126389091C0
S1130EF027380E945D0010922C388091063890911A
S1130F0007388938934108F4B2CF8FE794E82EE18B
S1130F10815090402040E1F700C000000E941B0275
S1130F208FE794E82EE1815090402040E1F700C023
S1130F300000C0932C389BCF1F920F920FB60F92D4
S1130F4011242F933F934F935F936F937F938F93CA
S1130F509F93AF93BF93EF93FF938CE098E30E942A
S1130F60C808FF91EF91BF91AF919F918F917F91AD
S1130F706F915F914F913F912F910F900FBE0F9002
S1130F801F9018951F920F920FB60F9211242F9352
S1130F903F934F935F936F937F938F939F93AF93FD
S1130FA0BF93EF93FF930E94FB02809108389091C6
S1130FB00938A0910A38B0910B380196A11DB11DD2
S1130FC08093083890930938A0930A38B0930B386B
S1130FD081E080934301FF91EF91BF91AF919F9185
S1130FE08F917F916F915F914F913F912F910F90CE
S1130FF00FBE0F901F901895FC016083718381ECE4
S1131000DB0113968C93A081B18116964C930190C9
S1131010F081E02D81E0858308950F93CF93DF93D2
S1131020FC01293098F5093098F58789811132C07F
S113103081E0878B108E660F6283222369F0A42FD0
S1131040B52F40E050E08D91EF01C40FD51F8B8385
S11310504F5F5F4F4217B8F3238B048B158A168AB0
S11310608389882341F082818E7F0190F081E02D75
S1131070878381E012C08489882371F08281816032
S11310800190F081E02D878381E007C080E005C0F6
S113109080E003C080E001C081E0DF91CF910F9137
S11310A008950F9300E00E940D080F910895FC012C
S11310B0A081B18115969C91159792FF03C084E09D
S11310C0808F02C083E0808F986015969C93178A66
S11310D00895CF93DF93FC0193892489A081B18182
S11310E015968C91159784FF07C083E014968C9312
S11310F085E0808F178A1CC08589891758F48589F3
S1131100EF01C80FD11D8B8118968C9385898F5F51
S1131110858B0EC08689821728F482818160179698
S11311208C9306C083E014968C9381E0808F178A99
S1131130DF91CF910895FC018689883070F4A081F5
S1131140B18118968C919689DF01A90FB11D1B9668
S11311508C9386898F5F868B08C0A081B18183E0E0
S113116014968C9382E0808F178A948986898917D4
S113117030F40190F081E02D82E084830895A08111
S1131180B18187E014968C9381E0808F178A08954B
S1131190DC01ED91FC912581322F3C7019F00E9405
S11311A05708089526FF03C00E9469080895222362
S11311B01CF40E949B08089526E0FC01208F178AE6
S11311C008955058BB27AA270E94F9080C94D809FF
S11311D00E94CA0938F00E94D10920F039F49F3FD7
S11311E019F426F40C94C7090EF4E095E7FB0C946B
S11311F0C109E92F0E94E90958F3BA176207730776
S11312008407950720F079F4A6F50C940B0A0EF4E4
S1131210E0950B2EBA2FA02D0B01B90190010C0102
S1131220CA01A0011124FF27591B99F0593F50F41A
S1131230503E68F11A16F040A22F232F342F442772
S1131240585FF3CF469537952795A795F04053956A
S1131250C9F77EF41F16BA0B620B730B840BBAF03A
S11312609150A1F0FF0FBB1F661F771F881FC2F7A5
S11312700EC0BA0F621F731F841F48F487957795B9
S11312806795B795F7959E3F08F0B0CF9395880F73
S113129008F09927EE0F9795879508950E945509B0
S11312A06894B1110C940C0A08950E94F10988F015
S11312B09F5798F0B92F9927B751B0F0E1F0660F16
S11312C0771F881F991F1AF0BA95C9F714C0B13057
S11312D091F00E940B0AB1E008950C940B0A672F59
S11312E0782F8827B85F39F0B93FCCF38695779586
S11312F06795B395D9F73EF490958095709561956F
S11313007F4F8F4F9F4F0895E89409C097FB3EF499
S113131090958095709561957F4F8F4F9F4F99233E
S1131320A9F0F92F96E9BB279395F69587957795BC
S11313306795B795F111F8CFFAF4BB0F11F460FF7C
S11313401BC06F5F7F4F8F4F9F4F16C0882311F0D4
S113135096E911C0772321F09EE8872F762F05C0E8
S1131360662371F096E8862F70E060E02AF09A9583
S1131370660F771F881FDAF7880F9695879597F978
S1131380089597F99F6780E870E060E008959FEF03
S113139080EC089500240A94161617061806090608
S11313A0089500240A9412161306140605060895D7
S11313B0092E0394000C11F4882352F0BB0F40F45F
S11313C0BF2B11F460FF04C06F5F7F4F8F4F9F4F9F
S11313D0089557FD9058440F551F59F05F3F71F021
S11313E04795880F97FB991F61F09F3F79F0879588
S11313F00895121613061406551FF2CF4695F1DF11
S113140008C0161617061806991FF1CF86957105A0
S1131410610508940895E894BB2766277727CB01D4
S113142097F908950E94250A0C94D8090E94CA09C4
S113143038F00E94D10920F0952311F00C94C109D1
S11314400C94C70911240C940C0A0E94E90970F346
S1131450959FC1F3950F50E0551F629FF001729F55
S1131460BB27F00DB11D639FAA27F00DB11DAA1F64
S1131470649F6627B00DA11D661F829F2227B00DB1
S1131480A11D621F739FB00DA11D621F839FA00D3C
S1131490611D221F749F3327A00D611D231F849F8C
S11314A0600D211D822F762F6A2F11249F575040E3
S11314B09AF0F1F088234AF0EE0FFF1FBB1F661F5E
S11314C0771F881F91505040A9F79E3F510580F027
S11314D00C94C1090C940C0A5F3FE4F3983ED4F3D6
S11314E0869577956795B795F795E7959F5FC1F7CB
S11314F0FE2B880F911D9695879597F90895A1E283
S11315001A2EAA1BBB1BFD010DC0AA1FBB1FEE1F79
S1131510FF1FA217B307E407F50720F0A21BB30BC4
S1131520E40BF50B661F771F881F991F1A9469F740
S113153060957095809590959B01AC01BD01CF019C
S11315400895A29FB001B39FC001A39F700D811D98
S11315501124911DB29F700D811D1124911D0895B8
S11315600F931F93CF93DF938230910510F482E0A1
S113157090E0E0913038F091313820E030E0A0E0A4
S1131580B0E0309719F140815181028113814817ED
S11315905907C8F08417950769F4109731F012962B
S11315A00C93129713961C9327C000933038109312
S11315B0313822C02115310519F04217530718F4A8
S11315C09A01BD01EF01DF01F801DBCF21153105DF
S11315D0F9F0281B390B2430310580F48A819B8172
S11315E06115710521F0FB018283938304C080930C
S11315F0303890933138FE01329644C0FE01E20F38
S1131600F31F8193919322503109288339833AC07F
S113161020912E3830912F38232B41F42091023819
S11316203091033820932E3830932F38209100388E
S1131630309101382115310541F42DB73EB7409161
S1131640043850910538241B350BE0912E38F09165
S11316502F38E217F307A0F42E1B3F0B2817390786
S113166078F0AC014E5F5F4F2417350748F04E0FFA
S11316705F1F40932E3850932F388193919302C06B
S1131680E0E0F0E0CF01DF91CF911F910F91089539
S1131690CF93DF93009709F481C0FC013297128243
S11316A01382A0913038B0913138109781F42081A1
S11316B03181820F931F20912E3830912F382817B3
S11316C0390751F5E0932E38F0932F3867C0ED01B8
S11316D020E030E0CE17DF0740F44A815B819E01B1
S11316E041155105F1F0EA01F5CFC283D38340815E
S11316F05181840F951FC817D90759F4888199819E
S1131700840F951F0296808391838A819B818283B3
S113171093832115310529F4E0933038F09331385F
S11317203DC0E901EA83FB8349915991C40FD51F58
S1131730EC17FD0761F480819181840F951F029657
S1131740E90188839983828193818A839B83E0E082
S1131750F0E012968D919C911397009719F0FD017A
S1131760DC01F7CF8D919C9111979D012E5F3F4F26
S1131770820F931F20912E3830912F382817390764
S113178069F4309729F4109230381092313802C03D
S113179012821382A0932E38B0932F38DF91CF9109
S11317A00895AEE0B0E0E7EDFBE00C94A00E0D89E7
S11317B01E898F89988D26E02C8309831A8397FFCD
S11317C002C080E090E801978D839E83AE01455E60
S11317D05F4F698D7A8DCE0101960E94010C4D8177
S11317E05E8157FD0AC02F813885421753070CF4D8
S11317F09A01F801E20FF31F10822E96E4E00C9494
S1131800B90EABE0B0E0E7E0FCE00C94920E6C01A2
S11318107B018A01FC0116821782838181FFCCC17E
S1131820CE0101963C01F6019381F70193FD859168
S113183093FF81917F01882309F4BAC1853239F479
S113184093FD859193FF81917F01853229F4B6013F
S113185090E00E94F80DE7CF912C212C312CFFE170
S1131860F315D8F08B3279F038F4803279F0833282
S1131870A1F4232D20611DC08D3261F0803369F401
S1131880232D216016C0832D8260382EE32DE46061
S11318903E2E2AC0F32DF8601DC037FC2DC020ED6C
S11318A0280F2A3040F08E32B9F436FC81C1232D42
S11318B02064322E19C036FE06C08AE0989E200DA0
S11318C01124922E11C0EAE02E9E200D1124222E06
S11318D0F32DF0623F2E08C08C3621F4832D8068EE
S11318E0382E02C0883641F4F70193FD859193FFA9
S11318F081917F018111B3CF982F9F7D95549330AF
S113190028F40C5F1F4F9FE399830DC0833631F099
S1131910833771F0833509F059C021C0F801808103
S113192089830E5F1F4F88248394912C530113C025
S11319302801F2E04F0E511CF801A080B18036FE60
S113194003C0692D70E002C06FEF7FEFC5010E94F4
S1131950ED0D4C018201F32DFF773F2E16C02801B7
S113196022E0420E511CF801A080B18036FE03C073
S1131970692D70E002C06FEF7FEFC5010E94E20D98
S11319804C01F32DF0683F2E820133FC1BC0822DE5
S113199090E088169906B0F4B60180E290E00E94C7
S11319A0F80D2A94F4CFF50137FC859137FE819127
S11319B05F01B60190E00E94F80D21102A9421E005
S11319C0821A91088114910471F7E8C0843611F0E9
S11319D0893641F5F80137FE07C060817181828143
S11319E093810C5F1F4F08C060817181072E000C2A
S11319F0880B990B0E5F1F4FF32DFF763F2E97FF39
S1131A0009C090958095709561957F4F8F4F9F4F3A
S1131A10F0683F2E2AE030E0A3010E94340E882EA5
S1131A20861845C0853731F4232D2F7EB22E2AE047
S1131A3030E025C0932D997FB92E8F36C1F018F46C
S1131A40883579F0B5C0803719F0883721F0B0C0F7
S1131A50E92FE061BE2EB4FE0DC0FB2DF460BF2E55
S1131A6009C034FE0AC0292F2660B22E06C028E021
S1131A7030E005C020E130E002C020E132E0F801AE
S1131A80B7FE07C060817181828193810C5F1F4F13
S1131A9006C06081718180E090E00E5F1F4FA3015A
S1131AA00E94340E882E8618FB2DFF773F2E36FEBB
S1131AB00DC0232D2E7FA22E891458F434FE0BC0A2
S1131AC032FC09C0832D8E7EA82E05C0B82CA32C11
S1131AD003C0B82C01C0B92CA4FE0FC0FE01E80D50
S1131AE0F11D8081803321F49A2D997EA92E09C09D
S1131AF0A2FE06C0B394B39404C08A2D867809F07C
S1131B00B394A3FC11C0A0FE06C0B21488F4280C40
S1131B10922C9B180EC0B21460F4B60180E290E0DF
S1131B200E94F80DB394F7CFB21418F42B1802C026
S1131B30982C212CA4FE10C0B60180E390E00E94F2
S1131B40F80DA2FE17C0A1FC03C088E790E002C014
S1131B5088E590E0B6010CC08A2D867859F0A1FE84
S1131B6002C08BE201C080E2A7FC8DE2B60190E0E6
S1131B700E94F80D891438F4B60180E390E00E94C5
S1131B80F80D9A94F7CF8A94F301E80DF11D808142
S1131B90B60190E00E94F80D8110F5CF222009F4DF
S1131BA042CEB60180E290E00E94F80D2A94F6CF6E
S1131BB0F6018681978102C08FEF9FEF2B96E2E1B9
S1131BC00C94AB0EFC010590615070400110D8F7E5
S1131BD0809590958E0F9F1F0895FC016150704071
S1131BE001900110D8F7809590958E0F9F1F08954E
S1131BF00F931F93CF93DF93FB01238121FD03C038
S1131C008FEF9FEF2CC022FF16C04681578124819D
S1131C1035814217530744F4A081B1819D012F5FA0
S1131C203F4F208331838C93268137812F5F3F4F31
S1131C302683378314C08B01EC01FB010084F185FA
S1131C40E02D0995892BE1F6D80116968D919C918A
S1131C501797019616968D939C931797CE01DF9153
S1131C60CF911F910F910895FA01AA27283051F1BD
S1131C70203181F1E8946F936E7F6E5F7F4F8F4FB9
S1131C809F4FAF4FB1E03ED0B4E03CD0670F781F18
S1131C90891F9A1FA11D680F791F8A1F911DA11DFD
S1131CA06A0F711D811D911DA11D20D009F4689436
S1131CB03F912AE0269F11243019305D3193DEF6DE
S1131CC0CF010895462F4770405D4193B3E00FD094
S1131CD0C9F7F6CF462F4F70405D4A3318F0495D7F
S1131CE031FD4052419302D0A9F7EACFB4E0A69562
S1131CF09795879577956795BA95C9F70097610584
S1131D00710508959B01AC010A2E069457954795D9
S1131D1037952795BA95C9F7620F731F841F951FCE
S1131D20A01D08952F923F924F925F926F927F92DF
S1131D308F929F92AF92BF92CF92DF92EF92FF92D7
S1131D400F931F93CF93DF93CDB7DEB7CA1BDB0B83
S1131D50CDBFDEBF09942A88398848885F846E84A1
S1131D607D848C849B84AA84B984C884DF80EE80BB
S1131D70FD800C811B81AA81B981CE0FD11DCDBFFD
S10D1D80DEBFED010895F894FFCFD3
S1131D8A253032642E2564412000253032642E2504
S1131D9A64562000202044204120004E204720453C
S10D1DAA20520020212021202100F6
S1091DB40000323820009B
S9030000FC
