S00E00005043412D33342E73726563AE
S11300000C943E000C945B000C945B000C9439053A
S11300100C945B000C945B000C945B000C945B00F0
S11300200C945B000C945B000C945B000C945B00E0
S11300300C945B000C945B000C945B000C945B00D0
S11300400C945B000C945B000C945B000C945B00C0
S11300500C945B000C945B000C945B000C945B00B0
S11300600C945B000C94D3040C945B000C945B0024
S11300700C945B000C945B000C945B0011241FBE79
S1130080CFEFCDBFDFE3DEBF28E3A6E0B8E301C0D6
S11300901D92AB32B207E1F718E3A0E0B8E3E6EA59
S11300A0F6E102C005900D92A630B107D9F70E947F
S11300B078040C94480B0C9400000F931F93CF9377
S11300C0DF9300D0CDB7DEB7198288E38A8322E0BC
S11300D0AE014F5F5F4F6CE389E098E30E949606A0
S11300E0E9E0F8E387898130E9F387E893E1019750
S11300F0F1F700C00000809121388530C9F409E08F
S113010018E30E94470122E0AE014F5F5F4F6CE3AA
S1130110C8010E949606F80187898130E1F387E8D7
S113012093E10197F1F700C00000808D853049F319
S113013080E490E00E94790280E191E00E947902DB
S113014080E191E00E94790280E191E00E947902CD
S113015080E191E00E94790280E191E00E947902BD
S113016080E191E00E94790280E191E00E947902AD
S113017080E191E00E94790288E191E00E94790295
S113018088E191E00E94790288E191E00E9479027D
S113019088E191E00E94790288E191E00E9479026D
S11301A088E191E00E94790288E191E00E9479025D
S11301B088E191E00E9479028CE191E00E94790249
S11301C08CE191E00E9479028CE191E00E94790235
S11301D08CE191E00E9479028CE191E00E94790225
S11301E08CE191E00E9479028CE191E00E94790215
S11301F08CE191E00E9479028EE191E00E94790203
S11302008EE191E00E9479028EE191E00E947902F0
S11302108EE191E00E9479028EE191E00E947902E0
S11302208EE191E00E9479028EE191E00E947902D0
S11302308EE191E00E9479028FE191E00E947902BF
S11302408FE191E00E9479028FE191E00E947902AE
S11302508FE191E00E9479028FE191E00E9479029E
S11302608FE191E00E9479028FE191E00E9479028E
S11302708FE191E00E94790280E890E00E94790287
S11302800F900F90DF91CF911F910F910895CF930D
S1130290DF93CDB7DEB72A97CDBFDEBF87EA91E6FD
S11302A00197F1F700C00000198288E38A8322E0F5
S11302B0AE014F5F5F4F6CE389E098E30E949606BE
S11302C0E9E0F8E387898130E9F387E893E101976E
S11302D0F1F700C0000080912138853019F40E94A4
S11302E0470150C0198289E38A8322E0AE014F5F3F
S11302F05F4F6CE389E098E30E949606E9E0F8E337
S113030087898130E9F387E893E10197F1F700C029
S1130310000080912138853019F40E94470132C0D1
S1130320198284E18A8388E78B838EE58C838DE64A
S11303308D838CE08E8381E08F8386E0888728E03C
S1130340AE014F5F5F4F6CE389E098E30E9496062D
S1130350E9E0F8E387898130E9F38FE493EC0197CE
S1130360F1F700C0000080912138853019F40E9413
S1130370470108C087EA91E60197F1F700C0000041
S11303800E945D002A96CDBFDEBFDF91CF91089514
S1130390BF92CF92DF92EF92FF920F931F93CF936E
S11303A0DF93CDB7DEB7EDB6FEB6FC0101900020B9
S11303B0E9F731979F01281B390B622FA9015527B3
S11303C04F5F5F4FEDB7FEB7E41BF50BEDBFFEBF0C
S11303D04DB75EB74F5F5F4FD42EC52E70E4718367
S11303E0222349F0FC01DA01119690E081918D936A
S11303F09F5F6913FBCFBB24B394B20E2B2D6CE328
S113040089E098E30E949606E9E0F8E38789813061
S1130410E9F387E893E10197F1F700C000008091C8
S113042021388530C1F409E018E30E9447012B2DDF
S11304304D2D5C2D6CE3C8010E949606F801878956
S11304408130E1F387E893E10197F1F700C0000000
S1130450808D853051F3EDBEFEBEDF91CF911F91AB
S11304600F91FF90EF90DF90CF90BF9008950F937E
S11304701F93CF93DF9300D0CDB7DEB790E4998379
S11304808A8322E0AE014F5F5F4F6CE389E098E31B
S11304900E949606E9E0F8E387898130E9F387E86A
S11304A093E10197F1F700C0000080912138853075
S11304B0C9F409E018E30E94470122E0AE014F5F4E
S11304C05F4F6CE3C8010E949606F801878981306A
S11304D0E1F387E893E10197F1F700C00000808D14
S11304E0853049F30F900F90DF91CF911F910F91B9
S11304F008950F931F93CF93DF9300D01F92CDB72E
S1130500DEB79C0136952795369527952B839B81DD
S1130510907C99838A8322E0AE014F5F5F4F6CE346
S113052089E098E30E949606E9E0F8E38789813040
S1130530E9F387E893E10197F1F700C000008091A7
S113054021388530C9F409E018E30E94470122E00C
S1130550AE014F5F5F4F6CE3C8010E949606F8013D
S113056087898130E1F387E893E10197F1F700C0CF
S11305700000808D853049F32396CDBFDEBFDF9127
S1130580CF911F910F910895811105C080E890E0EB
S11305900E9479020895813039F4862F90E0805CBE
S11305A09F4F80680E9479020895CF93DF9388ED6E
S11305B084BF1092610087EA91E60197F1F700C0C9
S11305C00000E0E6F0E08081806880838FE880931B
S11305D00004C4E1D4E088E08883A5E1B4E08C930E
S11305E0E6E1F4E080839881936098839C91916024
S11305F09C9390819160908395EF9093200491E077
S11306009093250480933104E3E3F4E090819160B6
S11306109083809313018FE380934004DF91CF9103
S113062008956F927F928F929F92AF92BF92CF92D2
S1130630DF92EF92FF920F931F93CF93DF934C01BE
S11306407B0181E090E00E9479029401ADECBCEC66
S11306500E942607AC0156954795569547955695A1
S113066047959A010E942607EC01D695C795D69521
S1130670C795D695C795CE01880F991FCC0FDD1F5E
S1130680CC0FDD1FCC0FDD1FC80FD91FCA018C1B77
S11306909D0BEC0194013695279536952795ABE78C
S11306A0B4E10E9426076C01D694C794DF93CF93DC
S11306B0DF92CF9204E916E91F930F931F921F92C2
S11306C01F921F920E94560801965C010E943507F2
S11306D0682E792EDF93CF93DF92CF921F930F93DF
S11306E0BF92AF927F926F920E945608862D972DEB
S11306F00E94C801862D972D0E94CD07A4014E5C4F
S11307005F4F56954795569547959A01ABE7B4E1E7
S11307100E942607FC01F695E7959F01ADECBCEC21
S11307200E94260796958795969587959C01220F9A
S1130730331F220F331F820F931F6F01C81AD90A68
S1130740BC2C9A01A5ECB0E20E94260792958295F2
S11307508F7089279F7089278C0111278DB79EB7C9
S113076044968DBF9EBF101611064CF4C0E0D0E035
S113077084E00E9437022196C017D107C9F7BB2035
S113078021F08FEF8C0D0E94370260E081E00E941F
S1130790C4029701ADECBCEC0E942607AC0156954F
S11307A0479556954795569547959A010E94260771
S11307B0EC01D695C795D695C795D695C795CE0124
S11307C0880F991FCC0FDD1FCC0FDD1FCC0FDD1F51
S11307D0C80FD91FCA018C1B9D0BEC0197013695DC
S11307E0279536952795ABE7B4E10E9426076C015F
S11307F0D694C794DF93CF93DF92CF920DE916E995
S11308001F930F931F921F921F921F920E945608CC
S113081001964C010E943507A82EB92EDF93CF9381
S1130820DF92CF921F930F939F928F92BF92AF92BA
S11308300E9456088A2D9B2D0E94C8018A2D9B2D4B
S11308400E94CD0792E3E90EF11CF694E794F69426
S1130850E7949701ABE7B4E10E942607AC015695F3
S113086047959A01ADECBCEC0E94260796958795B6
S1130870969587959C01220F331F220F331F820FF9
S1130880931F6A01C81AD90ABC2C9701A5ECB0E2DF
S11308900E942607929582958F7089279F708927D9
S11308A08C0111278DB79EB744968DBF9EBF10163D
S11308B011064CF4C0E0D0E084E00E943702219697
S11308C0C017D107C9F7BB2021F08FEF8C0D0E9410
S11308D03702DF91CF911F910F91FF90EF90DF903E
S11308E0CF90BF90AF909F908F907F906F9008951E
S11308F00E94D50278944EE560E178E089E098E3BF
S11309000E9441062FE784E89EE1215080409040F8
S1130910E1F700C000000E9447012FE784E89EE150
S1130920215080409040E1F700C00000109224382C
S113093010922538109222381092233881E0809347
S11309402638809126388823E1F320912438309189
S11309502538409124385091253836952795369579
S11309602795A5ECB0E20E942607929582958F7098
S113097089279F708927849F9001859F300D949FBC
S1130980300D11242093223830932338609122387B
S11309907091233880912438909125380E94110356
S11309A010922638CECF1F920F920FB60F921124B9
S11309B02F933F934F935F936F937F938F939F9363
S11309C0AF93BF93EF93FF9389E098E30E940D07E1
S11309D0FF91EF91BF91AF919F918F917F916F9113
S11309E05F914F913F912F910F900FBE0F901F90E9
S11309F01895CF93DF93EC01442339F1222339F185
S1130A00A1E0B0E002C0AA0FBB1F6A95E2F791E033
S1130A10E0E030E001C0952F688170E06A237B2319
S1130A20672B29F0EE23C9F03F5FE1E003C0E11139
S1130A3016C03F5F86E08A95F1F700C0341741F095
S1130A4051E0590F2913E7CF03C090E001C090E0B3
S1130A5081E029130BC080E009C0E1E001C0E0E0BF
S1130A6086E08A95F1F700C030E0EACFDF91CF91BC
S1130A7008951F920F920FB60F9211241F932F9374
S1130A803F934F935F936F937F938F939F93AF9312
S1130A90BF93CF93DF93EF93FF932CE34AE064E09B
S1130AA088E094E00E94F904182F2CE34AE066E001
S1130AB088E094E00E94F9041170C12F20E0D22F45
S1130AC090E0C823D9232CE34AE065E088E094E071
S1130AD00E94F90421E030E0CD2B11F420E030E055
S1130AE090E082239323892B09F49BC0809108040E
S1130AF084FF97C0809106388823D9F18091080437
S1130B0085FF13C080912438909125380A9720F1ED
S1130B1080912438909125380A97809324389093B3
S1130B20253881E08093263817C08091080486FF19
S1130B3013C080912438909125388B3B994060F400
S1130B4080912438909125380A9680932438909384
S1130B50253881E0809326381092063810920738A1
S1130B60109208388FE097E20197F1F700C0000077
S1130B7058C08091080485FD1AC0809107388111FE
S1130B8054C081E08093073880910838882309F4A1
S1130B9048C081E08093063887E893E10197F1F734
S1130BA000C0000010920738109208383AC08091B3
S1130BB0080486FD19C08091083881113BC081E08A
S1130BC08093083880910738882359F181E0809315
S1130BD0063887E893E10197F1F700C0000010920E
S1130BE00738109208381DC080910738882359F0BF
S1130BF08091080486FF07C01092083810920738C5
S1130C00109206380EC080910838882351F08091E4
S1130C10080485FF06C01092083810920738109215
S1130C2006388FEF8093090418C08091080486FF6A
S1130C300AC0DECF80910738882349F309C081E0D8
S1130C4080930838C3CF809108388111F3CFF7CF50
S1130C508091080486FFDBCFCFCFFF91EF91DF9126
S1130C60CF91BF91AF919F918F917F916F915F9140
S1130C704F913F912F911F910F900FBE0F901F9096
S1130C801895FC016083718381ECDB0113968C93CE
S1130C90A081B18116964C930190F081E02D81E002
S1130CA0858308950F93CF93DF93FC01293098F542
S1130CB0093098F58789811132C081E0878B108EC5
S1130CC0660F6283222369F0A42FB52F40E050E021
S1130CD08D91EF01C40FD51F8B834F5F5F4F421778
S1130CE0B8F3238B048B158A168A8389882341F0F1
S1130CF082818E7F0190F081E02D878381E012C094
S1130D008489882371F0828181600190F081E02DD3
S1130D10878381E007C080E005C080E003C080E0F5
S1130D2001C081E0DF91CF910F9108950F9300E00E
S1130D300E9452060F910895FC01A081B18115967D
S1130D409C91159792FF03C084E0808F02C083E0DA
S1130D50808F986015969C93178A0895CF93DF939C
S1130D60FC0193892489A081B18115968C911597F2
S1130D7084FF07C083E014968C9385E0808F178AE4
S1130D801CC08589891758F48589EF01C80FD11DC6
S1130D908B8118968C9385898F5F858B0EC086898D
S1130DA0821728F48281816017968C9306C083E0B1
S1130DB014968C9381E0808F178ADF91CF910895E8
S1130DC0FC018689883070F4A081B18118968C91D9
S1130DD09689DF01A90FB11D1B968C9386898F5FBD
S1130DE0868B08C0A081B18183E014968C9382E045
S1130DF0808F178A94898689891730F40190F0814D
S1130E00E02D82E084830895A081B18187E0149667
S1130E108C9381E0808F178A0895DC01ED91FC9119
S1130E202581322F3C7019F00E949C06089526FFFC
S1130E3003C00E94AE06089522231CF40E94E0061B
S1130E40089526E0FC01208F178A0895A29FB0011F
S1130E50B39FC001A39F700D811D1124911DB29FEA
S1130E60700D811D1124911D08950F931F93CF932D
S1130E70DF938230910510F482E090E0E09129380C
S1130E80F0912A3820E030E0A0E0B0E0309719F18A
S1130E90408151810281138148175907C8F0841792
S1130EA0950769F4109731F012960C9312971396E4
S1130EB01C9327C00093293810932A3822C0211587
S1130EC0310519F04217530718F49A01BD01EF01D7
S1130ED0DF01F801DBCF21153105F9F0281B390BAF
S1130EE02430310580F48A819B816115710521F0DC
S1130EF0FB018283938304C08093293890932A381A
S1130F00FE01329644C0FE01E20FF31F81939193D8
S1130F1022503109288339833AC0209127383091EF
S1130F202838232B41F42091023830910338209340
S1130F302738309328382091003830910138211512
S1130F40310541F42DB73EB740910438509105382E
S1130F50241B350BE0912738F0912838E217F3076A
S1130F60A0F42E1B3F0B2817390778F0AC014E5F15
S1130F705F4F2417350748F04E0F5F1F4093273803
S1130F80509328388193919302C0E0E0F0E0CF01C0
S1130F90DF91CF911F910F910895CF93DF93009725
S1130FA009F481C0FC01329712821382A09129387E
S1130FB0B0912A38109781F420813181820F931FD8
S1130FC020912738309128382817390751F5E093B4
S1130FD02738F093283867C0ED0120E030E0CE17C1
S1130FE0DF0740F44A815B819E0141155105F1F010
S1130FF0EA01F5CFC283D38340815181840F951FC9
S1131000C817D90759F488819981840F951F0296CE
S1131010808391838A819B81828393832115310507
S113102029F4E0932938F0932A383DC0E901EA8392
S1131030FB8349915991C40FD51FEC17FD0761F447
S113104080819181840F951F0296E9018883998399
S1131050828193818A839B83E0E0F0E012968D91F4
S11310609C911397009719F0FD01DC01F7CF8D9146
S11310709C9111979D012E5F3F4F820F931F2091EA
S11310802738309128382817390769F4309729F41C
S11310901092293810922A3802C012821382A09327
S11310A02738B0932838DF91CF910895AEE0B0E0AF
S11310B0ECE5F8E00C94250B0D891E898F89988D39
S11310C026E02C8309831A8397FF02C080E090E80E
S11310D001978D839E83AE01455E5F4F698D7A8D46
S11310E0CE0101960E9486084D815E8157FD0AC09B
S11310F02F813885421753070CF49A01F801E20F47
S1131100F31F10822E96E4E00C943E0BABE0B0E0AB
S1131110ECE8F8E00C94170B6C017B018A01FC01EC
S113112016821782838181FFCCC1CE0101963C01D6
S1131130F6019381F70193FD859193FF81917F01DE
S1131140882309F4BAC1853239F493FD859193FF5C
S113115081917F01853229F4B60190E00E947D0AD5
S1131160E7CF912C212C312CFFE1F315D8F08B32F1
S113117079F038F4803279F08332A1F4232D2061A0
S11311801DC08D3261F0803369F4232D216016C0B7
S1131190832D8260382EE32DE4603E2E2AC0F32D89
S11311A0F8601DC037FC2DC020ED280F2A3040F018
S11311B08E32B9F436FC81C1232D2064322E19C03D
S11311C036FE06C08AE0989E200D1124922E11C08E
S11311D0EAE02E9E200D1124222EF32DF0623F2EE4
S11311E008C08C3621F4832D8068382E02C08836DE
S11311F041F4F70193FD859193FF81917F01811162
S1131200B3CF982F9F7D9554933028F40C5F1F4FD4
S11312109FE399830DC0833631F0833771F08335B2
S113122009F059C021C0F801808189830E5F1F4FE6
S113123088248394912C530113C02801F2E04F0EAB
S1131240511CF801A080B18036FE03C0692D70E006
S113125002C06FEF7FEFC5010E94720A4C01820148
S1131260F32DFF773F2E16C0280122E0420E511CB9
S1131270F801A080B18036FE03C0692D70E002C081
S11312806FEF7FEFC5010E94670A4C01F32DF068F0
S11312903F2E820133FC1BC0822D90E088169906F4
S11312A0B0F4B60180E290E00E947D0A2A94F4CF63
S11312B0F50137FC859137FE81915F01B60190E01D
S11312C00E947D0A21102A9421E0821A9108811437
S11312D0910471F7E8C0843611F0893641F5F801BC
S11312E037FE07C060817181828193810C5F1F4F3B
S11312F008C060817181072E000C880B990B0E5F6A
S11313001F4FF32DFF763F2E97FF09C090958095D0
S1131310709561957F4F8F4F9F4FF0683F2E2AE065
S113132030E0A3010E94B90A882E861845C085378B
S113133031F4232D2F7EB22E2AE030E025C0932DE8
S1131340997FB92E8F36C1F018F4883579F0B5C07D
S1131350803719F0883721F0B0C0E92FE061BE2E44
S1131360B4FE0DC0FB2DF460BF2E09C034FE0AC0CC
S1131370292F2660B22E06C028E030E005C020E107
S113138030E002C020E132E0F801B7FE07C060811E
S11313907181828193810C5F1F4F06C060817181CE
S11313A080E090E00E5F1F4FA3010E94B90A882ECF
S11313B08618FB2DFF773F2E36FE0DC0232D2E7F82
S11313C0A22E891458F434FE0BC032FC09C0832DBC
S11313D08E7EA82E05C0B82CA32C03C0B82C01C047
S11313E0B92CA4FE0FC0FE01E80DF11D80818033ED
S11313F021F49A2D997EA92E09C0A2FE06C0B394A9
S1131400B39404C08A2D867809F0B394A3FC11C068
S1131410A0FE06C0B21488F4280C922C9B180EC0AF
S1131420B21460F4B60180E290E00E947D0AB394A5
S1131430F7CFB21418F42B1802C0982C212CA4FE58
S113144010C0B60180E390E00E947D0AA2FE17C09E
S1131450A1FC03C088E790E002C088E590E0B601F3
S11314600CC08A2D867859F0A1FE02C08BE201C01F
S113147080E2A7FC8DE2B60190E00E947D0A891407
S113148038F4B60180E390E00E947D0A9A94F7CF85
S11314908A94F301E80DF11D8081B60190E00E9469
S11314A07D0A8110F5CF222009F442CEB60180E2F4
S11314B090E00E947D0A2A94F6CFF60186819781F6
S11314C002C08FEF9FEF2B96E2E10C94300BFC01EE
S11314D00590615070400110D8F7809590958E0F5B
S11314E09F1F0895FC016150704001900110D8F7CE
S11314F0809590958E0F9F1F08950F931F93CF9300
S1131500DF93FB01238121FD03C08FEF9FEF2CC0EC
S113151022FF16C046815781248135814217530723
S113152044F4A081B1819D012F5F3F4F208331831B
S11315308C93268137812F5F3F4F2683378314C0D6
S11315408B01EC01FB010084F185E02D0995892BC9
S1131550E1F6D80116968D919C91179701961696EF
S11315608D939C931797CE01DF91CF911F910F918B
S11315700895FA01AA27283051F1203181F1E89425
S11315806F936E7F6E5F7F4F8F4F9F4FAF4FB1E072
S11315903ED0B4E03CD0670F781F891F9A1FA11D6D
S11315A0680F791F8A1F911DA11D6A0F711D811D6E
S11315B0911DA11D20D009F468943F912AE0269F33
S11315C011243019305D3193DEF6CF010895462F92
S11315D04770405D4193B3E00FD0C9F7F6CF462F73
S11315E04F70405D4A3318F0495D31FD40524193DC
S11315F002D0A9F7EACFB4E0A69597958795779599
S11316006795BA95C9F700976105710508959B011F
S1131610AC010A2E06945795479537952795BA95A8
S1131620C9F7620F731F841F951FA01D08952F9281
S11316303F924F925F926F927F928F929F92AF925E
S1131640BF92CF92DF92EF92FF920F931F93CF93AB
S1131650DF93CDB7DEB7CA1BDB0BCDBFDEBF09946A
S11316602A88398848885F846E847D848C849B842E
S1131670AA84B984C884DF80EE80FD800C811B813C
S1131680AA81B981CE0FD11DCDBFDEBFED01089572
S1071690F894FFCFF8
S1131694253032642E25644100253032642E2564BD
S10516A45600EA
S10916A600002B382000B7
S9030000FC
