S00E00005043412D33342E73726563AE
S11300000C943E000C945B000C945B000C945B001D
S11300100C945B000C945B000C94910C0C945B00AE
S11300200C945B000C945B000C945B000C945B00E0
S11300300C945B000C945B000C945B000C945B00D0
S11300400C945B000C945B000C945B000C945B00C0
S11300500C945B000C945B000C945B000C945B00B0
S11300600C945B000C946B0C0C945B000C945B0084
S11300700C945B000C945B000C945B0011241FBE79
S1130080CFEFCDBFDFE3DEBF18E3A0E0B8E3E4E7E2
S1130090F9E202C005900D92A830B107D9F728E320
S11300A0A8E0B8E301C01D92A73EB207E1F70E94A1
S11300B00D0B0C9497140C9400009F92AF92BF9276
S11300C0CF92DF92EF92FF920F931F93CF93DF9320
S11300D081112BC0992493942BC0F7012081318185
S11300E0888199812817390761F0612F802F0E9438
S11300F0FB0A88810E945C0A88819981F7018083C8
S113010091831F5FF2E0EF0EF11C2296143129F760
S11301100F5F88E2A80EB11CE8E2CE0ED11C0915CF
S1130120A8F4E601750110E0D8CF6894992491F8F9
S11301300F2EFCE5AF2EF8E3BF2EF02D0F2EF8E0C6
S1130140CF2EF8E3DF2EF02D00E0EBCFDF91CF913F
S11301501F910F91FF90EF90DF90CF90BF90AF90E1
S11301609F9008952F923F924F925F926F927F9249
S11301708F929F92AF92BF92CF92DF92EF92FF92B3
S11301800F931F93CF93DF932C011092D0381092CA
S1130190D738662E772E29E562162BE1720630F0E9
S11301A00F2EF8E56F2EFBE17F2EF02D9301ADECC1
S11301B0BCEC0E944810AC0156954795569547955E
S11301C0569547959A010E9448104C01969487943D
S11301D09694879496948794C401880F991F880CE9
S11301E0991C880C991C880C991C880E991ECA01AC
S11301F0881999094C0193013695279536952795C9
S1130200ABE7B4E10E9448106C01D694C7949F9266
S11302108F92DF92CF920F2EF2E3EF2EF9EAFF2EA8
S1130220F02DFF92EF921F921F921F921F920E9435
S113023078118C015C019FEFA91AB90AC5010E94CB
S11302405710EC019F928F92DF92CF92FF92EF9220
S1130250BF92AF92DF938F930E9478112DB73EB770
S11302602C5E3F4F2DBF3EBF1016110604F5409182
S1130270D7389091D03880E034E1439FA001112415
S1130280FA01E90FF11DEE0FFF1FE85FF74CDE01E5
S1130290A80FB11D2C9130E0208331839F5F8F5FC5
S11302A0282F30E0201731075CF39093D038CE012B
S11302B00E94EF1062E3660E711C76946794769444
S11302C067949301ABE7B4E10E944810EC01D69522
S11302D0C7959E01ADECBCEC0E944810969587959D
S11302E0969587959C01220F331F220F331F820F8F
S11302F0931F5C2F581B9301A5ECB0E20E94481099
S1130300929582958F7089279F708927992718164F
S113031019060CF056C06091D7384091D03820E0CF
S113032030E0E4E16E9FB001112404E010E0A5E0A8
S1130330B0E00F2EF6E0EF2EF12CF02D2930310530
S1130340ECF0C233D105D0F0FB01E40FF11DEE0F48
S1130350FF1FE85FF74CE082F182E1E0E40F5523F0
S113036039F16B01CE0ED11CF601EE0FFF1FE85FD1
S1130370F74CE082F1824E5F50E01BC0F9013196E8
S1130380E0FD0BC0FB01E40FF11DEE0FFF1FE85F62
S1130390F74CA083B1834F5F0CC0FB01E40FF11D48
S11303A0EE0FFF1FE85FF74C008311834F5F01C01E
S11303B04E2F2F5F3F4F2817390709F0BFCF4093C7
S11303C0D0385523B9F04091D038E091D73824E1A2
S11303D0E29FF0011124E40FF11DEE0FFF1FE85F0F
S11303E0F74C252F30E021503109208331834F5FB2
S11303F04093D03884319105C4F44091D73820918A
S1130400D03834E1439FA001112460E270E0FA0186
S1130410E20FF11DEE0FFF1FE85FF74C608371835D
S113042001962F5F8431910591F78091D7388F5FC2
S11304308093D7381092D0389201ADECBCEC0E9476
S11304404810AC015695479556954795569547954E
S11304509A010E9448104C0196948794969487942C
S113046096948794C401880F991F880C991C880C52
S1130470991C880C991C880E991ECA01881999091F
S11304804C0192013695279536952795ABE7B4E153
S11304900E9448106C01D694C7949F928F92DF9269
S11304A0CF920F2EFCE3EF2EF9EAFF2EF02DFF92F0
S11304B0EF921F921F921F921F920E9478118C013B
S11304C05C019FEFA91AB90AC5010E945710EC01FB
S11304D09F928F92DF92CF92FF92EF92BF92AF9250
S11304E0DF938F930E9478112DB73EB72C5E3F4F58
S11304F02DBF3EBF1016110604F54091D7389091D8
S1130500D03880E034E1439FA0011124FA01E90FBF
S1130510F11DEE0FFF1FE85FF74CDE01A80FB11DC0
S11305202C9130E0208331839F5F8F5F282F30E050
S1130530201731075CF39093D038CE010E94EF105E
S113054065E0460E511C9201ADECBCEC0E944810D3
S11305501C01369427943694279436942794910159
S1130560AFEAB7E40E944810A101481B590B569505
S11305704795840F951F929582958F7089279F7058
S1130580892749E1489F9001499F300D1124C101F9
S1130590821B930B9C01ADECBCEC0E9448105C01E7
S11305A0B694A794B694A7947A2C9201369527957D
S11305B0A3E1B3E80E9448100024880F991F001C8F
S11305C0880F991F001C892F902D9927AC011816AC
S11305D019060CF056C0E091D738C090D038C394B7
S11305E0DC2C20E030E0DC011197C4E1EC9FF00149
S11305F011246894EE24E2F8F12C05E010E00F2EAB
S1130600F6E08F2E912CF02D66246A946D0CA217BF
S1130610B30779F4DAEF2D16310459F4BF01660DEE
S1130620711D660F771F685F774CEB018882998292
S11306301CC0B9016F5F7F4F63707727672B59F434
S1130640BF01660D711D660F771F685F774CEB0164
S1130650088319830AC0BF01660D711D660F771FD9
S1130660685F774CEB01E882F9822F5F3F4FD394A8
S11306702417350749F69C0121503109C20EC09256
S1130680D0387720B9F02091D038E091D738D4E130
S1130690ED9FF0011124E20FF11DEE0FFF1FE85F43
S11306A0F74CBB2431E0A31AB108A082B1822F5FBA
S11306B02093D03844315105F4F46091D738309107
S11306C0D038232FC4E16C9FB0011124A0E2B0E024
S11306D0FB01E20FF11DEE0FFF1FE85FF74CA08353
S11306E0B1834F5F5F4F2F5F4431510589F7381B4A
S11306F03C5E3093D03881E00E945D00DF91CF9161
S11307001F910F91FF90EF90DF90CF90BF90AF902B
S11307109F908F907F906F905F904F903F902F901D
S11307200895CF92DF92EF92FF920F931F93CF938E
S1130730DF930F2EF6E4EF2EF9EAFF2EF02DFF9251
S1130740EF921F921F921F921F920E9478118C01A8
S11307506C012FEFC21AD20AC6010E945710EC0195
S1130760FF92EF92DF92CF92DF93CF930E947811A2
S11307708DB79EB70C968DBF9EBF1016110604F55B
S11307804091D7389091D03880E024E1429FA00175
S11307901124FA01E90FF11DEE0FFF1FE85FF74C7A
S11307A0DE01A80FB11D2C9130E0208331839F5FBF
S11307B08F5F282F30E0201731075CF39093D038F7
S11307C0CE010E94EF100F2EFEE4EF2EF9EAFF2E69
S11307D0F02DFF92EF921F921F921F921F920E9480
S11307E078118C016C018FEFC81AD80AC6010E94D7
S11307F05710EC01FF92EF92DF92CF92DF93CF93E9
S11308000E9478118DB79EB70C968DBF9EBF1016AF
S1130810110604F54091D7389091D03880E024E156
S1130820429FA0011124FA01E90FF11DEE0FFF1FF1
S1130830E85FF74CDE01A80FB11D2C9130E0208356
S113084031839F5F8F5F282F30E0201731075CF3DF
S11308509093D038CE010E94EF1020915A383091F5
S11308605B38E0915A38F0915B38ADECBCEC0E94F7
S11308704810AC015695479556954795569547951A
S11308809A010E9448109695879596958795969516
S113089087959C01220F331F880F991F880F991F7A
S11308A0880F991F820F931F481B590B5F934F9317
S11308B09F013695279536952795ABE7B4E10E94BD
S11308C04810969587959F938F930F2EF5E5EF2EFD
S11308D0F9EAFF2EF02DFF92EF921F921F921F92C2
S11308E01F920E9478118C016C018FEFC81AD80AEC
S11308F0C6010E945710EC0120915A3830915B38A0
S1130900E0915A38F0915B38ADECBCEC0E94481091
S1130910AC015695479556954795569547959A0136
S11309200E944810969587959695879596958795F4
S11309309C01220F331F880F991F880F991F880F5E
S1130940991F820F931F481B590B5F934F939F016D
S11309503695279536952795ABE7B4E10E94481064
S1130960969587959F938F93FF92EF92DF92CF9204
S1130970DF93CF930E9478118DB79EB744968DBFB5
S11309809EBF10161106F4F44091D7389091D038D8
S113099080E024E1429FA0011124FA01E90FF11D36
S11309A0EE0FFF1FE85FF74CDE01A80FB11D2C917D
S11309B030E0208331839F5F8F5F282F30E0201742
S11309C031075CF3CE010E94EF101092D0381092E0
S11309D0D73880E00E945D00DF91CF911F910F9185
S11309E0FF90EF90DF90CF90089581E090E00E9417
S11309F09E0A8CE390E00E949E0A8EE599EA0E948A
S1130A00FD0985E699EA0E94FD098DE699EA0E94AE
S1130A10FD090895CF93DF93EC01442339F1222398
S1130A2039F1A1E0B0E002C0AA0FBB1F6A95E2F75A
S1130A3091E0E0E030E001C0952F688170E06A2326
S1130A407B23672B29F0EE23C9F03F5FE1E003C06D
S1130A50E11116C03F5F86E08A95F1F700C03417B4
S1130A6041F051E0590F2913E7CF03C090E001C0D2
S1130A7090E081E029130BC080E009C0E1E001C0EF
S1130A80E0E086E08A95F1F700C030E0EACFDF913C
S1130A90CF9108951F93CF93DF932CE34AE066E050
S1130AA088E094E00E940A05182F2CE34AE065E0F0
S1130AB088E094E00E940A051170C12F90E0D92FBC
S1130AC090E08C239D23892B69F08091080486FD96
S1130AD002C082E001C080E09091080495FD03C04B
S1130AE0816001C080E0DF91CF911F910895CF9381
S1130AF088ED84BF1092610087EA91E60197F1F7CF
S1130B0000C00000E0E6F0E08081806880838FE828
S1130B108093000488E080931404809315048093E8
S1130B20160495EF9093200491E09093250480930C
S1130B303104E3E3F4E090819160908380931301A6
S1130B408FE380934004E0E4F1E081818111FDCFE3
S1130B50E0E4F1E081E090E082879387C1E0C28322
S1130B6081E88083C7830E944A058093E23810920B
S1130B70CD381092CE381092CF381092CB381092D4
S1130B80CC381092AC381092AD381092D8381092FC
S1130B90D938C093E1381092DC381092D2381092D0
S1130BA0DD381092DE381092DF381092E03810925F
S1130BB0AE381092AF381092B0381092B13810920B
S1130BC0D1381092DB381092D3381092D438109266
S1130BD0D5381092D6381092DA3885EC99E08093A3
S1130BE05A3890935B3880915A3890915B38809151
S1130BF05A3890915B38853C994060F010925A388D
S1130C0010925B3860915A3870915B3880E090E0C4
S1130C100E94391480915A3890915B3880935838E7
S1130C2090935938CF9108950E944A058093CD3806
S1130C3020915A3830915B38ADECBCEC0E944810DE
S1130C409695879596958795969587959C01220FFD
S1130C50331F880F991F880F991F880F991F820FC0
S1130C60931F80935A3890935B389091E238809127
S1130C70CD38981709F4C3C08091E238811154C06B
S1130C808091CD38823009F04FC080915A389091CC
S1130C905B388B3B994008F09EC08091AE389091B0
S1130CA0AF38A091B038B091B1384091D338509159
S1130CB0D4386091D5387091D638841B950BA60B27
S1130CC0B70B0297A105B10510F580915A389091A0
S1130CD05B388136994070F480915A3890915B3832
S1130CE08C599F4F80935A3890935B3881E080935E
S1130CF0E13871C080915A3890915B380A9680939C
S1130D005A3890935B3881E08093E13864C08091D5
S1130D105A3890915B380A9680935A3890935B388E
S1130D2081E08093E13857C08091E238813009F046
S1130D3052C08091CD38833009F04DC080915A382B
S1130D4090915B380A9708F446C08091AE38909130
S1130D50AF38A091B038B091B1384091D3385091A8
S1130D60D4386091D5387091D638841B950BA60B76
S1130D70B70B0297A105B10510F580915A389091EF
S1130D805B388436910570F080915A3890915B38C5
S1130D908456910980935A3890935B3881E080930C
S1130DA0E13819C080915A3890915B380A97809342
S1130DB05A3890935B3881E08093E1380CC080917D
S1130DC05A3890915B380A9780935A3890935B38DD
S1130DD081E08093E1388091CD388093E23880912E
S1130DE0AE389091AF38A091B038B091B1388093BB
S1130DF0D3389093D438A093D538B093D638089587
S1130E00EF92FF920F93CF93DF93CDB7DEB728977E
S1130E10CDBFDEBF7C01842F698302E021E0AE01F7
S1130E204F5F5F4F682FC7010E94420D8FE097E22A
S1130E300197F1F700C00000C7010B962896CDBFBB
S1130E40DEBFDF91CF910F91FF90EF900895EF9265
S1130E50FF920F93CF93DF93CDB7DEB72897CDBF23
S1130E60DEBF7C01842F698302E021E0AE014F5F85
S1130E705F4F682FC7010E94420D8FE097E20197F0
S1130E80F1F700C00000C7010B962896CDBFDEBF66
S1130E90DF91CF910F91FF90EF900895CF93DF935F
S1130EA0662329F062E00E942707EC0104C062E097
S1130EB00E940007EC018FE097E20197F1F700C070
S1130EC000006881898170E0762F6627680F711DA4
S1130ED0072E000C880B990B0E942D0F2AE037ED8A
S1130EE043EA5AE30E94B90F9B01AC010E94170E1A
S1130EF020E030E048EC52E40E94B90F0E94F50E65
S1130F00CB0161347F4110F080E090E0219611F430
S1130F108FEF9FEFDF91CF9108950F931F93CF939E
S1130F20DF9300D0CDB7DEB7662329F061E00E94DD
S1130F3027078C0104C061E00E9400078C018FE048
S1130F4097E20197F1F700C00000F8016081818108
S1130F5070E0762F6627680F711D072E000C880B32
S1130F60990B0E942D0F2CEA35EC47E256E30E94C0
S1130F70B90F2FE632E143E05BE30E94830E20E0E9
S1130F8030E048EC52E40E94B90F0E94F50E6983E8
S1130F907A8389819A8181349F4124F489819A8159
S1130FA0992314F419821A820F3F1F4F21F48FEFF3
S1130FB09FEF89839A8389819A810F900F90DF91A3
S1130FC0CF911F910F910895ACE5B8E3E4E8F8E3FD
S1130FD080E290E08D939D93AE17BF07D9F72CEA7A
S1130FE038E380E290E081939193E217F307D9F715
S1130FF0A8E0B8E3E0E3F8E380E290E08D939D930A
S1131000AE17BF07D9F728E538E380E290E0819373
S113101091932E173F07D9F71092D7381092D038F2
S113102008950F931F93CF93DF9300D0CDB7DEB70E
S1131030198288E38A8322E0AE014F5F5F4F6CE33D
S113104082EB98E30E94860DE2EBF8E38789813016
S1131050E9F387E893E10197F1F700C0000080917C
S1131060CA388130C9F002EB18E30E943B0922E040
S1131070AE014F5F5F4F6CE3C8010E94860DF8011B
S113108087898130E1F387E893E10197F1F700C0A4
S11310900000808D813049F780E490E00E949E0A30
S11310A080E091E00E949E0A80E091E00E949E0A06
S11310B080E191E00E949E0A80E191E00E949E0AF4
S11310C080E191E00E949E0A80E191E00E949E0AE4
S11310D080E091E00E949E0A80E091E00E949E0AD6
S11310E080E091E00E949E0A80E091E00E949E0AC6
S11310F088E191E00E949E0A88E191E00E949E0AA4
S113110088E191E00E949E0A88E191E00E949E0A93
S113111080E091E00E949E0A80E091E00E949E0A95
S113112080E091E00E949E0A80E091E00E949E0A85
S11311308CE191E00E949E0A8CE191E00E949E0A5B
S11311408CE191E00E949E0A8CE191E00E949E0A4B
S113115080E091E00E949E0A80E091E00E949E0A55
S113116080E091E00E949E0A80E091E00E949E0A45
S11311708EE191E00E949E0A8EE191E00E949E0A17
S11311808EE191E00E949E0A8EE191E00E949E0A07
S113119080E091E00E949E0A80E091E00E949E0A15
S11311A080E091E00E949E0A80E091E00E949E0A05
S11311B08FE191E00E949E0A8FE191E00E949E0AD5
S11311C08FE191E00E949E0A8FE191E00E949E0AC5
S11311D080E091E00E949E0A80E091E00E949E0AD5
S11311E080E091E00E949E0A81E091E00E949E0AC4
S11311F08FE191E00E949E0A8FE191E00E949E0A95
S11312008FE191E00E949E0A8FE191E00E949E0A84
S113121081E091E00E949E0A80E091E00E949E0A93
S11312208FE191E00E949E0A8FE191E00E949E0A64
S11312308FE191E00E949E0A8FE191E00E949E0A54
S11312408FE191E00E949E0A8FE191E00E949E0A44
S11312508FE191E00E949E0A8FE191E00E949E0A34
S113126080E890E00E949E0A0F900F90DF91CF914A
S11312701F910F910895CF93DF93CDB7DEB72A97CF
S1131280CDBFDEBF87EA91E60197F1F700C0000009
S1131290198288E38A8322E0AE014F5F5F4F6CE3DB
S11312A082EB98E30E94860DE2EBF8E387898130B4
S11312B0E9F387E893E10197F1F700C0000080911A
S11312C0CA38813019F00E943B0991C0198289E320
S11312D08A8322E0AE014F5F5F4F6CE382EB98E3B9
S11312E00E94860DE2EBF8E387898130E9F387E811
S11312F093E10197F1F700C000008091CA38813072
S113130019F00E943B0973C0198284E18A8388E73B
S11313108B838EE58C838DE68D838CE08E8381E0D8
S11313208F8386E0888728E0AE014F5F5F4F6CE3D0
S113133082EB98E30E94860DE2EBF8E38789813023
S1131340E9F38FE493EC0197F1F700C0000080917A
S1131350CA38813019F00E943B0949C087EA91E6F6
S11313600197F1F700C000000E941108ACE5B8E352
S1131370E4E8F8E380E290E08D939D93AE17BF0715
S1131380D9F72CEA38E380E290E081939193E21755
S1131390F307D9F7A8E0B8E3E0E3F8E380E290E0EC
S11313A08D939D93AE17BF07D9F728E538E380E204
S11313B090E0819391932E173F07D9F71092D73875
S11313C01092D03880910638882349F081E090E06B
S11313D00E949E0A88E390E00E949E0A08C081E071
S11313E090E00E949E0A8CE390E00E949E0A2A9656
S11313F0CDBFDEBFDF91CF910895CF92DF92EF9200
S1131400FF920F931F93CF93DF93CDB7DEB78C0179
S1131410EDB6FEB6FC0101900020E9F73197BF015B
S1131420681B790B362FCB01992701964DB75EB710
S1131430481B590B4DBF5EBF4F5F5F4F80E4EDB754
S1131440FEB78183662341F0D801329680E09D91F6
S113145091938F5F3813FBCF21E0260F6CE382EB6F
S113146098E30E94860DE2EBF8E387898130E9F383
S113147087E893E10197F1F700C000008091CA3832
S1131480813079F00F2EF2EBCF2EF8E3DF2EF02D22
S11314900E943B09C8010E94FD09F601808D81303C
S11314A0B9F7EDBEFEBEDF91CF911F910F91FF9072
S11314B0EF90DF90CF9008950F931F93CF93DF9316
S11314C000D0CDB7DEB790E499838A8322E0AE01E1
S11314D04F5F5F4F6CE382EB98E30E94860DE2EB73
S11314E0F8E387898130E9F387E893E10197F1F71D
S11314F000C000008091CA388130C9F002EB18E3C3
S11315000E943B0922E0AE014F5F5F4F6CE3C801CC
S11315100E94860DF80187898130E1F387E893E121
S11315200197F1F700C00000808D813049F70F90DA
S11315300F90DF91CF911F910F910895EF92FF9239
S11315400F931F93CF93DF9300D01F92CDB7DEB7D5
S11315507C0196958795969587958B838B81807C66
S11315608983EA8222E0AE014F5F5F4F6CE382EB36
S113157098E30E94860DE2EBF8E387898130E9F372
S113158087E893E10197F1F700C000008091CA3821
S11315908130C9F002EB18E30E943B0922E0AE015E
S11315A04F5F5F4F6CE3C8010E94860DF801878985
S11315B08130E1F387E893E10197F1F700C000007F
S11315C0808D813049F7FCE3EF16F10419F4109291
S11315D0063807C088E3E816F10419F481E0809323
S11315E006382396CDBFDEBFDF91CF911F910F91B7
S11315F0FF90EF900895811106C0862F806890E0D7
S11316000E949E0A0895813039F4862F90E0805C10
S11316109F4F80680E949E0A0895CF93DF931F9284
S1131620CDB7DEB70E94770578944EE560E178E0A7
S113163082EB98E30E94310D2FE784E89EE121506C
S113164080409040E1F700C000000E943B092FE772
S113165084E89EE1215080409040E1F700C0000002
S113166081E0898311E08091AC389091AD38893C58
S11316709105D8F08091DB388823B9F08091DC386B
S1131680811102C082E001C0812F8093D2380E9470
S1131690F5042FE784E89EE1215080409040E1F773
S11316A000C000001092DB38DECF8091D238813048
S11316B079F481E090E00E949E0A8CE390E00E941D
S11316C09E0A0E94E4070E9491031092D238CBCF65
S11316D08091D238823039F581E090E00E949E0AF0
S11316E088E390E00E949E0A0E94E4076091AC386F
S11316F07091AD388091CE389091CF380E94B2006D
S113170060915A3870915B3880E090E00E943914FF
S113171080915A3890915B38809358389093593817
S11317201092D238A0CF8091DC38882309F46CC0A1
S11317308091D138882309F450C041E460E082EB01
S113174098E30E944E078093D8389093D9388091BB
S1131750D8389091D9382091AC383091AD38821B6B
S1131760930B9C0122F422273327281B390B2630A4
S1131770310554F08091D8389091D9388093AC38A1
S11317809093AD381093E13841E460E082EB98E344
S11317900E948D078093CB389093CC388091CB38BE
S11317A09091CC382091CE383091CF38821B930B56
S11317B09C0122F422273327281B390B26303105BC
S11317C054F08091CB389091CC388093CE3890935C
S11317D0CF381093E1381092D13820915838309195
S11317E0593880915A3890915B382817390709F491
S11317F03ACF80915A3890915B38809358389093BF
S113180059380E9491032FCF8091D138882309F44D
S113181050C041E460E082EB98E30E944E0780935D
S1131820D8389093D9388091D8389091D93820916C
S1131830AC383091AD38821B930B9C0122F42227E3
S11318403327281B390B2630310554F08091D838C2
S11318509091D9388093AC389093AD381093E13897
S113186041E460E082EB98E30E948D078093CB38DB
S11318709093CC388091CB389091CC382091CE384D
S11318803091CF38821B930B9C0122F422273327FB
S1131890281B390B2630310554F08091CB389091B8
S11318A0CC388093CE389093CF381093E13810928F
S11318B0D1388091E138882309F4D5CE6091AC38D1
S11318C07091AD388091CE389091CF380E94B2009B
S11318D01092E138C8CE1F920F920FB60F921124C6
S11318E02F933F934F935F936F937F938F939F9324
S11318F0AF93BF93EF93FF9382EB98E30E94FD0DA8
S1131900FF91EF91BF91AF919F918F917F916F91D3
S11319105F914F913F912F910F900FBE0F901F90A9
S113192018951F920F920FB60F9211242F933F9385
S11319304F935F936F937F938F939F93AF93BF93D3
S1131940EF93FF932CE34AE064E088E094E00E9484
S11319500A0580FF30C08091080484FD03C081E043
S11319608093DA388091080484FF25C08091DA38A6
S1131970882309F19091DC3881E089278093DC3851
S11319808091DC38811102C082E001C081E0809343
S1131990D2388091AE389091AF38A091B038B091E0
S11319A0B1388093DD389093DE38A093DF38B0935C
S11319B0E0381092DA388091DC3881110E941406E4
S11319C06091AE387091AF388091B0389091B13851
S11319D02AEF30E040E050E00E942610672B682B8D
S11319E0692B19F481E08093D1386091AE387091FD
S11319F0AF388091B0389091B13824EF31E040E0B5
S1131A0050E00E942610672B682B692B19F481E0A3
S1131A108093DB388091AE389091AF38A091B03884
S1131A20B091B1380196A11DB11D8093AE38909349
S1131A30AF38A093B038B093B13881E080934301BC
S1131A40FF91EF91BF91AF919F918F917F916F9192
S1131A505F914F913F912F910F900FBE0F901F9068
S1131A601895FC016083718381ECDB0113968C93E0
S1131A70A081B18116964C930190F081E02D81E014
S1131A80858308950F93CF93DF93FC01293098F554
S1131A90093098F58789811132C081E0878B108ED7
S1131AA0660F6283222369F0A42FB52F40E050E033
S1131AB08D91EF01C40FD51F8B834F5F5F4F42178A
S1131AC0B8F3238B048B158A168A8389882341F003
S1131AD082818E7F0190F081E02D878381E012C0A6
S1131AE08489882371F0828181600190F081E02DE6
S1131AF0878381E007C080E005C080E003C080E008
S1131B0001C081E0DF91CF910F9108950F9300E020
S1131B100E94420D0F910895FC01A081B181159698
S1131B209C91159792FF03C084E0808F02C083E0EC
S1131B30808F986015969C93178A0895CF93DF93AE
S1131B40FC0193892489A081B18115968C91159704
S1131B5084FF07C083E014968C9385E0808F178AF6
S1131B601CC08589891758F48589EF01C80FD11DD8
S1131B708B8118968C9385898F5F858B0EC086899F
S1131B80821728F48281816017968C9306C083E0C3
S1131B9014968C9381E0808F178ADF91CF910895FA
S1131BA0FC018689883070F4A081B18118968C91EB
S1131BB09689DF01A90FB11D1B968C9386898F5FCF
S1131BC0868B08C0A081B18183E014968C9382E057
S1131BD0808F178A94898689891730F40190F0815F
S1131BE0E02D82E084830895A081B18187E014967A
S1131BF08C9381E0808F178A0895DC01ED91FC912C
S1131C002581322F3C7019F00E948C0D089526FF17
S1131C1003C00E949E0D089522231CF40E94D00D3F
S1131C20089526E0FC01208F178A08955058BB2799
S1131C30AA270E942E0E0C947F0F0E94710F38F079
S1131C400E94780F20F039F49F3F19F426F40C9485
S1131C506E0F0EF4E095E7FB0C94680FE92F0E94D9
S1131C60900F58F3BA17620773078407950720F09B
S1131C7079F4A6F50C94B20F0EF4E0950B2EBA2F5E
S1131C80A02D0B01B90190010C01CA01A00111247E
S1131C90FF27591B99F0593F50F4503E68F11A162A
S1131CA0F040A22F232F342F4427585FF3CF4695BB
S1131CB037952795A795F0405395C9F77EF41F16DD
S1131CC0BA0B620B730B840BBAF09150A1F0FF0FA7
S1131CD0BB1F661F771F881FC2F70EC0BA0F621F93
S1131CE0731F841F48F4879577956795B795F79583
S1131CF09E3F08F0B0CF9395880F08F09927EE0F18
S1131D009795879508950E94970E0C947F0F0E94D3
S1131D10780F58F00E94710F40F029F45F3F29F0CA
S1131D200C94680F51110C94B30F0C946E0F0E9415
S1131D30900F68F39923B1F3552391F3951B550B39
S1131D40BB27AA2762177307840738F09F5F5F4F8A
S1131D50220F331F441FAA1FA9F335D00E2E3AF0C9
S1131D60E0E832D091505040E695001CCAF72BD0E1
S1131D70FE2F29D0660F771F881FBB1F2617370732
S1131D804807AB07B0E809F0BB0B802DBF01FF2764
S1131D9093585F4F3AF09E3F510578F00C94680FCA
S1131DA00C94B30F5F3FE4F3983ED4F38695779594
S1131DB06795B795F7959F5FC9F7880F911D96951D
S1131DC0879597F90895E1E0660F771F881FBB1F79
S1131DD0621773078407BA0720F0621B730B840B26
S1131DE0BA0BEE1F88F7E09508950E94FC0E6894E4
S1131DF0B1110C94B30F08950E94980F88F09F5767
S1131E0098F0B92F9927B751B0F0E1F0660F771F1A
S1131E10881F991F1AF0BA95C9F714C0B13091F010
S1131E200E94B20FB1E008950C94B20F672F782F7F
S1131E308827B85F39F0B93FCCF3869577956795D5
S1131E40B395D9F73EF490958095709561957F4F41
S1131E508F4F9F4F0895E89409C097FB3EF49095E7
S1131E608095709561957F4F8F4F9F4F9923A9F06F
S1131E70F92F96E9BB279395F695879577956795FE
S1131E80B795F111F8CFFAF4BB0F11F460FF1BC042
S1131E906F5F7F4F8F4F9F4F16C0882311F096E9D5
S1131EA011C0772321F09EE8872F762F05C0662383
S1131EB071F096E8862F70E060E02AF09A95660F3C
S1131EC0771F881FDAF7880F9695879597F90895F5
S1131ED097F99F6780E870E060E008959FEF80ECD9
S1131EE0089500240A94161617061806090608957C
S1131EF000240A9412161306140605060895092EE2
S1131F000394000C11F4882352F0BB0F40F4BF2B50
S1131F1011F460FF04C06F5F7F4F8F4F9F4F089590
S1131F2057FD9058440F551F59F05F3F71F0479586
S1131F30880F97FB991F61F09F3F79F0879508956B
S1131F40121613061406551FF2CF4695F1DF08C08A
S1131F50161617061806991FF1CF869571056105A7
S1131F6008940895E894BB2766277727CB0197F94F
S1131F7008950E94CC0F0C947F0F0E94710F38F0CB
S1131F800E94780F20F0952311F00C94680F0C94A4
S1131F906E0F11240C94B30F0E94900F70F3959F51
S1131FA0C1F3950F50E0551F629FF001729FBB274C
S1131FB0F00DB11D639FAA27F00DB11DAA1F649FE8
S1131FC06627B00DA11D661F829F2227B00DA11D9B
S1131FD0621F739FB00DA11D621F839FA00D611D21
S1131FE0221F749F3327A00D611D231F849F600D42
S1131FF0211D822F762F6A2F11249F5750409AF06B
S1132000F1F088234AF0EE0FFF1FBB1F661F771FF6
S1132010881F91505040A9F79E3F510580F00C94C1
S1132020680F0C94B30F5F3FE4F3983ED4F38695A6
S113203077956795B795F795E7959F5FC1F7FE2B61
S1132040880F911D9695879597F90895A1E21A2E08
S1132050AA1BBB1BFD010DC0AA1FBB1FEE1FFF1F48
S1132060A217B307E407F50720F0A21BB30BE40B98
S1132070F50B661F771F881F991F1A9469F76095DF
S11320807095809590959B01AC01BD01CF01089599
S1132090A29FB001B39FC001A39F700D811D1124A5
S11320A0911DB29F700D811D1124911D08950F93F0
S11320B01F93CF93DF938230910510F482E090E078
S11320C0E091E538F091E63820E030E0A0E0B0E0BF
S11320D0309719F1408151810281138148175907C2
S11320E0C8F08417950769F4109731F012960C9391
S11320F0129713961C9327C00093E5381093E63883
S113210022C02115310519F04217530718F49A011A
S1132110BD01EF01DF01F801DBCF21153105F9F035
S1132120281B390B2430310580F48A819B81611589
S1132130710521F0FB018283938304C08093E53809
S11321409093E638FE01329644C0FE01E20FF31F7D
S11321508193919322503109288339833AC0209185
S1132160E3383091E438232B41F420910238309144
S113217003382093E3383093E438209100383091C9
S113218001382115310541F42DB73EB7409104388B
S113219050910538241B350BE091E338F091E43875
S11321A0E217F307A0F42E1B3F0B2817390778F02A
S11321B0AC014E5F5F4F2417350748F04E0F5F1F89
S11321C04093E3385093E4388193919302C0E0E064
S11321D0F0E0CF01DF91CF911F910F910895CF933C
S11321E0DF93009709F481C0FC01329712821382B5
S11321F0A091E538B091E638109781F420813181BF
S1132200820F931F2091E3383091E438281739075F
S113221051F5E093E338F093E43867C0ED0120E032
S113222030E0CE17DF0740F44A815B819E014115FF
S11322305105F1F0EA01F5CFC283D3834081518186
S1132240840F951FC817D90759F488819981840F81
S1132250951F0296808391838A819B8182839383D5
S11322602115310529F4E093E538F093E6383DC0B3
S1132270E901EA83FB8349915991C40FD51FEC17F7
S1132280FD0761F480819181840F951F0296E90115
S113229088839983828193818A839B83E0E0F0E041
S11322A012968D919C911397009719F0FD01DC0112
S11322B0F7CF8D919C9111979D012E5F3F4F820F17
S11322C0931F2091E3383091E4382817390769F4D3
S11322D0309729F41092E5381092E63802C0128241
S11322E01382A093E338B093E438DF91CF9108953B
S11322F0AEE0B0E0EEE7F1E10C9474140D891E89B0
S11323008F89988D26E02C8309831A8397FF02C056
S113231080E090E801978D839E83AE01455E5F4F18
S1132320698D7A8DCE0101960E94A8114D815E813E
S113233057FD0AC02F813885421753070CF49A01C0
S1132340F801E20FF31F10822E96E4E00C948D1432
S1132350ABE0B0E0EEEAF1E10C9466146C017B01B1
S11323608A01FC0116821782838181FFCCC1CE01D0
S113237001963C01F6019381F70193FD859193FF4A
S113238081917F01882309F4BAC1853239F493FD20
S1132390859193FF81917F01853229F4B60190E004
S11323A00E949F13E7CF912C212C312CFFE1F315D0
S11323B0D8F08B3279F038F4803279F08332A1F49A
S11323C0232D20611DC08D3261F0803369F4232DEB
S11323D0216016C0832D8260382EE32DE4603E2EEA
S11323E02AC0F32DF8601DC037FC2DC020ED280F46
S11323F02A3040F08E32B9F436FC81C1232D20649A
S1132400322E19C036FE06C08AE0989E200D112493
S1132410922E11C0EAE02E9E200D1124222EF32DBF
S1132420F0623F2E08C08C3621F4832D8068382E4C
S113243002C0883641F4F70193FD859193FF8191A1
S11324407F018111B3CF982F9F7D9554933028F449
S11324500C5F1F4F9FE399830DC0833631F08337A0
S113246071F0833509F059C021C0F8018081898356
S11324700E5F1F4F88248394912C530113C02801AD
S1132480F2E04F0E511CF801A080B18036FE03C06B
S1132490692D70E002C06FEF7FEFC5010E949413B5
S11324A04C018201F32DFF773F2E16C0280122E054
S11324B0420E511CF801A080B18036FE03C0692D84
S11324C070E002C06FEF7FEFC5010E9489134C01D9
S11324D0F32DF0683F2E820133FC1BC0822D90E067
S11324E088169906B0F4B60180E290E00E949F132A
S11324F02A94F4CFF50137FC859137FE81915F0171
S1132500B60190E00E949F1321102A9421E0821AC0
S113251091088114910471F7E8C0843611F089366A
S113252041F5F80137FE07C0608171818281938192
S11325300C5F1F4F08C060817181072E000C880B4F
S1132540990B0E5F1F4FF32DFF763F2E97FF09C0A7
S113255090958095709561957F4F8F4F9F4FF06850
S11325603F2E2AE030E0A3010E94DB13882E861858
S113257045C0853731F4232D2F7EB22E2AE030E07A
S113258025C0932D997FB92E8F36C1F018F4883564
S113259079F0B5C0803719F0883721F0B0C0E92F41
S11325A0E061BE2EB4FE0DC0FB2DF460BF2E09C049
S11325B034FE0AC0292F2660B22E06C028E030E07F
S11325C005C020E130E002C020E132E0F801B7FEAE
S11325D007C060817181828193810C5F1F4F06C0A7
S11325E06081718180E090E00E5F1F4FA3010E9423
S11325F0DB13882E8618FB2DFF773F2E36FE0DC089
S1132600232D2E7FA22E891458F434FE0BC032FCE5
S113261009C0832D8E7EA82E05C0B82CA32C03C020
S1132620B82C01C0B92CA4FE0FC0FE01E80DF11DA9
S11326308081803321F49A2D997EA92E09C0A2FEAF
S113264006C0B394B39404C08A2D867809F0B39479
S1132650A3FC11C0A0FE06C0B21488F4280C922C6E
S11326609B180EC0B21460F4B60180E290E00E94A0
S11326709F13B394F7CFB21418F42B1802C0982CFC
S1132680212CA4FE10C0B60180E390E00E949F13A9
S1132690A2FE17C0A1FC03C088E790E002C088E551
S11326A090E0B6010CC08A2D867859F0A1FE02C0D4
S11326B08BE201C080E2A7FC8DE2B60190E00E94AB
S11326C09F13891438F4B60180E390E00E949F13AD
S11326D09A94F7CF8A94F301E80DF11D8081B60135
S11326E090E00E949F138110F5CF222009F442CE7E
S11326F0B60180E290E00E949F132A94F6CFF6017F
S11327008681978102C08FEF9FEF2B96E2E10C94B4
S11327107F14FC010590615070400110D8F780953A
S113272090958E0F9F1F0895FC0161507040019099
S11327300110D8F7809590958E0F9F1F08950F93E1
S11327401F93CF93DF93FB01238121FD03C08FEF00
S11327509FEF2CC022FF16C046815781248135810A
S11327604217530744F4A081B1819D012F5F3F4F6D
S1132770208331838C93268137812F5F3F4F2683BB
S1132780378314C08B01EC01FB010084F185E02D3B
S11327900995892BE1F6D80116968D919C9117978E
S11327A0019616968D939C931797CE01DF91CF9146
S11327B01F910F910895FA01AA27283051F1203171
S11327C081F1E8946F936E7F6E5F7F4F8F4F9F4FC1
S11327D0AF4FB1E03ED0B4E03CD0670F781F891F03
S11327E09A1FA11D680F791F8A1F911DA11D6A0FD1
S11327F0711D811D911DA11D20D009F468943F9184
S11328002AE0269F11243019305D3193DEF6CF0182
S11328100895462F4770405D4193B3E00FD0C9F748
S1132820F6CF462F4F70405D4A3318F0495D31FDB5
S11328304052419302D0A9F7EACFB4E0A695979508
S1132840879577956795BA95C9F7009761057105DE
S113285008959B01AC010A2E069457954795379528
S11328602795BA95C9F7620F731F841F951FA01D82
S113287008950196272F0E9440140C943F14262F8C
S11328800E9462140080021619F00E944B140197F2
S113289001970895262FAF93BF93E0E0F0E13281D2
S11328A031FDFDCFDC01A050BC4E2C932DE924BF9B
S11328B023E020830196BF91AF91089503D08081D6
S11328C099270895FC01E050FC4E08952F923F9201
S11328D04F925F926F927F928F929F92AF92BF922C
S11328E0CF92DF92EF92FF920F931F93CF93DF93D8
S11328F0CDB7DEB7CA1BDB0BCDBFDEBF09942A8878
S1132900398848885F846E847D848C849B84AA84FF
S1132910B984C884DF80EE80FD800C811B81AA818C
S1132920B981CE0FD11DCDBFDEBFED010895F8945E
S1052930FFCFD3
S1132932253032642E2564562000253032642E253B
S113294264412000534554204355520052454E548D
S11329523A2000253032642E25644100204F56452A
S1132962522000564F4C544147450020212021203B
S105297221003E
S10B29740000E7382000010017
S9030000FC
